:020000040800F2
:1000000000C00020C19B0008E59C0008F19C00088E
:10001000F99C0008019D0008099D000800000000EF
:10002000000000000000000000000000119D00081A
:100030001D9D000800000000299D0008359D000856
:10004000119C0008119C0008119C0008119C0008DC
:10005000119C0008119C0008119C0008119C0008CC
:10006000119C0008119C0008119C0008119C0008BC
:10007000119C0008119C0008119C0008119C0008AC
:10008000119C0008119C0008119C0008119C00089C
:10009000119C0008119C0008119C0008119C00088C
:1000A000119C0008119C0008119C0008119C00087C
:1000B000119C0008292C0008052C0008119C000840
:1000C000119C0008119C0008119C0008119C00085C
:1000D000119C000879780008F9760008119C000846
:1000E000C91D0008119C000800000000119C0008B8
:1000F000119C0008119C0008119C0008119C00082C
:10010000119C0008119C0008119C0008119C00081B
:10011000119C0008119C00080D760008119C000835
:10012000119C0008119C0008119C0008119C0008FB
:1001300010B5054C237833B9044B13B10448AFF321
:1001400000800123237010BD400200200000000049
:10015000FCDB000808B5034B1BB103490348AFF3B0
:10016000008008BD0000000044020020FCDB000805
:10017000034613F8012B002AFBD1181A01387047E7
:1001800081F0004102E000BF83F0004330B54FEA48
:1001900041044FEA430594EA050F08BF90EA020FB5
:1001A0001FBF54EA000C55EA020C7FEA645C7FEA48
:1001B000655C00F0E2804FEA5454D4EB5555B8BF6B
:1001C0006D420CDD2C4480EA020281EA030382EADC
:1001D000000083EA010180EA020281EA0303362D6E
:1001E00088BF30BD11F0004F4FEA01314FF4801C41
:1001F0004CEA113102D0404261EB410113F0004F53
:100200004FEA03334CEA133302D0524263EB430309
:1002100094EA050F00F0A780A4F10104D5F1200EA7
:100220000DDB02FA0EFC22FA05F2801841F1000102
:1002300003FA0EF2801843FA05F359410EE0A5F1D6
:1002400020050EF1200E012A03FA0EFC28BF4CF007
:10025000020C43FA05F3C01851EBE37101F00045BD
:1002600007D54FF0000EDCF1000C7EEB00006EEBCA
:100270000101B1F5801F1BD3B1F5001F0CD3490854
:100280005FEA30004FEA3C0C04F101044FEA4452AB
:1002900012F5800F80F09A80BCF1004F08BF5FEA32
:1002A000500C50F1000041EB045141EA050130BD12
:1002B0005FEA4C0C404141EB0101013C28BFB1F524
:1002C000801FE9D291F0000F04BF01460020B1FA6F
:1002D00081F308BF2033A3F10B03B3F120020CDA42
:1002E0000C3208DD02F1140CC2F10C0201FA0CF020
:1002F00021FA02F10CE002F11402D8BFC2F1200C85
:1003000001FA02F120FA0CFCDCBF41EA0C0190403A
:10031000E41AA2BF01EB0451294330BD6FEA040483
:100320001F3C1CDA0C340EDC04F11404C4F120026E
:1003300020FA04F001FA02F340EA030021FA04F380
:1003400045EA030130BDC4F10C04C4F1200220FAD7
:1003500002F001FA04F340EA0300294630BD21FA15
:1003600004F0294630BD94F0000F83F4801306BFDB
:1003700081F480110134013D4EE77FEA645C18BFCF
:100380007FEA655C29D094EA050F08BF90EA020F66
:1003900005D054EA000C04BF1946104630BD91EA5E
:1003A000030F1EBF0021002030BD5FEA545C05D161
:1003B0004000494128BF41F0004130BD14F58004A0
:1003C0003CBF01F5801130BD01F0004545F0FE4114
:1003D00041F470014FF0000030BD7FEA645C1ABF49
:1003E000194610467FEA655C1CBF0B46024650EA80
:1003F000013406BF52EA033591EA030F41F40021AC
:1004000030BD00BF90F0000F04BF0021704730B531
:100410004FF4806404F132044FF000054FF0000106
:1004200050E700BF90F0000F04BF0021704730B5C7
:100430004FF4806404F1320410F0004548BF40429C
:100440004FF000013EE700BF42004FEAE2014FEAF1
:1004500031014FEA02701FBF12F07F4393F07F4FCC
:1004600081F06051704732F07F4208BF704793F0CF
:100470007F4F04BF41F40021704730B54FF46074E2
:1004800001F0004521F000411CE700BF50EA0102E5
:1004900008BF704730B54FF000050AE050EA01028E
:1004A00008BF704730B511F0004502D5404261EBFE
:1004B00041014FF4806404F132045FEA915C3FF43F
:1004C000D8AE4FF003025FEADC0C18BF03325FEADC
:1004D000DC0C18BF033202EBDC02C2F1200300FA8D
:1004E00003FC20FA02F001FA03FE40EA0E0021FAB2
:1004F00002F11444BDE600BF70B54FF0FF0C4CF4A0
:10050000E06C1CEA11541DBF1CEA135594EA0C0F51
:1005100095EA0C0F00F0DEF82C4481EA030621EA8C
:100520004C5123EA4C5350EA013518BF52EA0335C7
:1005300041F4801143F4801338D0A0FB02CE4FF079
:100540000005E1FB02E506F00042E0FB03E54FF0A9
:100550000006E1FB03569CF0000F18BF4EF0010EA1
:10056000A4F1FF04B6F5007F64F5407404D25FEA9D
:100570004E0E6D4146EB060642EAC62141EA555150
:100580004FEAC52040EA5E504FEACE2EB4F1FD0C92
:1005900088BFBCF5E06F1ED8BEF1004F08BF5FEA10
:1005A000500E50F1000041EB045170BD06F00046C2
:1005B00046EA010140EA020081EA0301B4EB5C046F
:1005C000C2BFD4EB0C0541EA045170BD41F4801167
:1005D0004FF0000E013C00F3AB8014F1360FDEBF8C
:1005E000002001F0004170BDC4F10004203C35DA68
:1005F0000C341BDC04F11404C4F1200500FA05F3EB
:1006000020FA04F001FA05F240EA020001F000428B
:1006100021F0004110EBD37021FA04F642EB060101
:100620005EEA430E08BF20EAD37070BDC4F10C042B
:10063000C4F1200500FA04F320FA05F001FA04F2EF
:1006400040EA020001F0004110EBD37041F10001DB
:100650005EEA430E08BF20EAD37070BDC4F12005E6
:1006600000FA05F24EEA020E20FA04F301FA05F24E
:1006700043EA020321FA04F001F0004121FA04F2F6
:1006800020EA020000EBD3705EEA430E08BF20EAC6
:10069000D37070BD94F0000F0FD101F00046400000
:1006A00041EB010111F4801F08BF013CF7D041EA82
:1006B000060195F0000F18BF704703F00046520086
:1006C00043EB030313F4801F08BF013DF7D043EA57
:1006D0000603704794EA0C0F0CEA135518BF95EA0D
:1006E0000C0F0CD050EA410618BF52EA4306D1D194
:1006F00081EA030101F000414FF0000070BD50EAB3
:10070000410606BF1046194652EA430619D094EA3C
:100710000C0F02D150EA013613D195EA0C0F05D126
:1007200052EA03361CBF104619460AD181EA03017A
:1007300001F0004141F0FE4141F470014FF0000032
:1007400070BD41F0FE4141F4780170BD70B54FF0CD
:10075000FF0C4CF4E06C1CEA11541DBF1CEA13554D
:1007600094EA0C0F95EA0C0F00F0A7F8A4EB05042F
:1007700081EA030E52EA03354FEA013100F0888026
:100780004FEA03334FF0805545EA131343EA1263EF
:100790004FEA022245EA111545EA10654FEA0026A4
:1007A0000EF000419D4208BF964244F1FD0404F55D
:1007B000407402D25B084FEA3202B61A65EB0305B9
:1007C0005B084FEA32024FF480104FF4002CB6EB76
:1007D000020E75EB030E22BFB61A754640EA0C00F6
:1007E0005B084FEA3202B6EB020E75EB030E22BF36
:1007F000B61A754640EA5C005B084FEA3202B6EB77
:10080000020E75EB030E22BFB61A754640EA9C0035
:100810005B084FEA3202B6EB020E75EB030E22BF05
:10082000B61A754640EADC0055EA060E18D04FEAC3
:10083000051545EA16754FEA06164FEAC30343EA63
:1008400052734FEAC2025FEA1C1CC0D111F4801F30
:100850000BD141EA00014FF000004FF0004CB6E729
:1008600011F4801F04BF01430020B4F1FD0C88BFC8
:10087000BCF5E06F3FF6AFAEB5EB030C04BFB6EBD3
:10088000020C5FEA500C50F1000041EB045170BDC6
:100890000EF0004E4EEA113114EB5C04C2BFD4EBF3
:1008A0000C0541EA045170BD41F480114FF0000E77
:1008B000013C90E645EA060E8DE60CEA135594EAF3
:1008C0000C0F08BF95EA0C0F3FF43BAF94EA0C0FF6
:1008D0000AD150EA01347FF434AF95EA0C0F7FF46B
:1008E00025AF104619462CE795EA0C0F06D152EABF
:1008F00003353FF4FDAE1046194622E750EA4106A3
:1009000018BF52EA43067FF4C5AE50EA41047FF4B3
:100910000DAF52EA43057FF4EBAE12E74FF0FF3C18
:1009200006E000BF4FF0010C02E000BF4FF0010CE9
:100930004DF804CD4FEA410C7FEA6C5C4FEA430C62
:1009400018BF7FEA6C5C1BD001B050EA410C0CBFB1
:1009500052EA430C91EA030F02BF90EA020F002013
:10096000704710F1000F91EA030F58BF994208BF7A
:1009700090422CBFD8176FEAE37040F00100704737
:100980004FEA410C7FEA6C5C02D150EA013C07D18E
:100990004FEA430C7FEA6C5CD6D152EA033CD3D0D9
:1009A0005DF8040B704700BF8446104662468C46D3
:1009B0001946634600E000BF01B5FFF7B7FF002806
:1009C00048BF10F1000F01BD4DF808EDFFF7F4FF2F
:1009D0000CBF012000205DF808FB00BF4DF808EDBA
:1009E000FFF7EAFF34BF012000205DF808FB00BFDD
:1009F0004DF808EDFFF7E0FF94BF012000205DF8FF
:100A000008FB00BF4DF808EDFFF7CEFF94BF0120B3
:100A100000205DF808FB00BF4DF808EDFFF7C4FFAC
:100A200034BF012000205DF808FB00BF4FEA410CF5
:100A30007FEA6C5C02D150EA013C0AD14FEA430CD8
:100A40007FEA6C5C02D152EA033C02D14FF0000015
:100A500070474FF0010070474FEA410212F5001253
:100A600015D211D56FF47873B3EB625212D94FEAF5
:100A7000C12343F0004343EA505311F0004F23FADF
:100A800002F018BF404270474FF00000704750EA34
:100A9000013005D111F0004008BF6FF000407047F1
:100AA0004FF00000704700BF4FEA4102B2F1E0434F
:100AB00024BFB3F5001CDCF1FE5C0DD901F0004C45
:100AC0004FEAC0024CEA5070B2F1004F40EB830095
:100AD00008BF20F00100704711F0804F21D113F1C1
:100AE0003872BCBF01F00040704741F480114FEAFA
:100AF0005252C2F11802C2F1200C10FA0CF320FA83
:100B000002F018BF40F001004FEAC1234FEAD3239F
:100B100003FA0CFC40EA0C0023FA02F34FEA430309
:100B2000CCE77FEA625307D150EA01331EBF4FF092
:100B3000FE4040F44000704701F0004040F0FE40AD
:100B400040F40000704700BF80F0004002E000BFAA
:100B500081F0004142001FBF5FEA410392EA030FA8
:100B60007FEA226C7FEA236C6AD04FEA1262D2EBF2
:100B70001363C1BFD218414048404140B8BF5B42F7
:100B8000192B88BF704710F0004F40F4000020F090
:100B90007F4018BF404211F0004F41F4000121F0A6
:100BA0007F4118BF494292EA030F3FD0A2F10102F0
:100BB00041FA03FC10EB0C00C3F1200301FA03F12E
:100BC00000F0004302D5494260EB4000B0F5000F51
:100BD00013D3B0F1807F06D340084FEA310102F110
:100BE0000102FE2A51D2B1F1004F40EBC25008BFC2
:100BF00020F0010040EA03007047490040EB00008C
:100C0000013A28BFB0F5000FEDD2B0FA80FCACF18C
:100C1000080CB2EB0C0200FA0CF0AABF00EBC250B9
:100C200052421843BCBFD0401843704792F0000FA7
:100C300081F4000106BF80F400000132013BB5E7FA
:100C40004FEA41037FEA226C18BF7FEA236C21D070
:100C500092EA030F04D092F0000F08BF08467047D5
:100C600090EA010F1CBF0020704712F07F4F04D1A3
:100C7000400028BF40F00040704712F100723CBFB6
:100C800000F50000704700F0004343F0FE4040F4E0
:100C9000000070477FEA226216BF08467FEA23639E
:100CA0000146420206BF5FEA412390EA010F40F489
:100CB000800070474FF0000304E000BF10F00043D5
:100CC00048BF40425FEA000C08BF704743F09643BC
:100CD00001464FF000001CE050EA010208BF7047D7
:100CE0004FF000030AE000BF50EA010208BF70475E
:100CF00011F0004302D5404261EB41015FEA010C73
:100D000002BF84460146002043F0B64308BFA3F16A
:100D10008053A3F50003BCFA8CF2083AA3EBC2534C
:100D200010DB01FA02FC634400FA02FCC2F120026B
:100D3000BCF1004F20FA02F243EB020008BF20F0A2
:100D40000100704702F1200201FA02FCC2F1200208
:100D500050EA4C0021FA02F243EB020008BF20EAFD
:100D6000DC7070474FF0FF0C1CEAD0521EBF1CEA2B
:100D7000D15392EA0C0F93EA0C0F6FD01A4480EA19
:100D8000010C400218BF5FEA41211ED04FF0006302
:100D900043EA501043EA5111A0FB01310CF000402E
:100DA000B1F5000F3EBF490041EAD3715B0040EA54
:100DB000010062F17F02FD2A1DD8B3F1004F40EB24
:100DC000C25008BF20F00100704790F0000F0CF0F7
:100DD000004C08BF49024CEA502040EA51207F3ABB
:100DE000C2BFD2F1FF0340EAC250704740F4000096
:100DF0004FF00003013A5DDC12F1190FDCBF00F087
:100E000000407047C2F10002410021FA02F1C2F134
:100E1000200200FA02FC5FEA310040F1000053EAD0
:100E20004C0308BF20EADC70704792F0000F00F01E
:100E3000004C02BF400010F4000F013AF9D040EA24
:100E40000C0093F0000F01F0004C02BF490011F4B8
:100E5000000F013BF9D041EA0C018FE70CEAD153B6
:100E600092EA0C0F18BF93EA0C0F0AD030F0004C36
:100E700018BF31F0004CD8D180EA010000F00040EA
:100E8000704790F0000F17BF90F0004F084691F0A8
:100E9000000F91F0004F14D092EA0C0F01D14202E2
:100EA0000FD193EA0C0F03D14B0218BF084608D1AB
:100EB00080EA010000F0004040F0FE4040F40000F5
:100EC000704740F0FE4040F4400070474FF0FF0C88
:100ED0001CEAD0521EBF1CEAD15392EA0C0F93EACF
:100EE0000C0F69D0A2EB030280EA010C49024FEA21
:100EF000402037D04FF0805343EA111143EA1013DA
:100F00000CF000408B4238BF5B0042F17D024FF491
:100F1000000C8B4224BF5B1A40EA0C00B3EB510F6C
:100F200024BFA3EB510340EA5C00B3EB910F24BF55
:100F3000A3EB910340EA9C00B3EBD10F24BFA3EBDA
:100F4000D10340EADC001B0118BF5FEA1C1CE0D1A2
:100F5000FD2A3FF650AF8B4240EBC25008BF20F055
:100F6000010070470CF0004C4CEA50207F32C2BFA9
:100F7000D2F1FF0340EAC250704740F400004FF046
:100F80000003013A37E792F0000F00F0004C02BF77
:100F9000400010F4000F013AF9D040EA0C0093F041
:100FA000000F01F0004C02BF490011F4000F013B9B
:100FB000F9D041EA0C0195E70CEAD15392EA0C0F03
:100FC00008D142027FF47DAF93EA0C0F7FF470AF3B
:100FD000084676E793EA0C0F04D14B023FF44CAF7E
:100FE00008466EE730F0004C18BF31F0004CCAD113
:100FF00030F000427FF45CAF31F000437FF43CAF4F
:101000005FE700BF4FF0FF3C06E000BF4FF0010C70
:1010100002E000BF4FF0010C4DF804CD4FEA400252
:101020004FEA41037FEA226C18BF7FEA236C11D09C
:1010300001B052EA530C18BF90EA010F58BFB2EB4F
:10104000030088BFC81738BF6FEAE17018BF40F0CF
:10105000010070477FEA226C02D15FEA402C05D183
:101060007FEA236CE4D15FEA412CE1D05DF8040B08
:10107000704700BF844608466146FFE70FB5FFF79B
:10108000C9FF002848BF10F1000F0FBD4DF808ED53
:10109000FFF7F4FF0CBF012000205DF808FB00BF44
:1010A0004DF808EDFFF7EAFF34BF012000205DF89E
:1010B00008FB00BF4DF808EDFFF7E0FF94BF0120EB
:1010C00000205DF808FB00BF4DF808EDFFF7D2FFE8
:1010D00094BF012000205DF808FB00BF4DF808ED2B
:1010E000FFF7C8FF34BF012000205DF808FB00BFF8
:1010F0004FEA4002B2F1FE4F0FD34FF09E03B3EB25
:1011000012620DD94FEA002343F0004310F0004F64
:1011100023FA02F018BF404270474FF000007047BA
:1011200012F1610F01D1420205D110F0004008BF59
:101130006FF0004070474FF00000704742000ED241
:10114000B2F1FE4F0BD34FF09E03B3EB126209D402
:101150004FEA002343F0004323FA02F070474FF0B8
:101160000000704712F1610F01D1420202D14FF02D
:10117000FF3070474FF00000704700BF7BB972B975
:101180000029BEBF00204FF0004106E008BF002844
:101190001CBF6FF000414FF0FF3000F0B9B9ADF166
:1011A000080C6DE904CE002909DB002B1ADB00F0E6
:1011B00035F8DDF804E0DDE9022304B07047404271
:1011C00061EB4101002B1BDB00F028F8DDF804E0A7
:1011D000DDE9022304B0404261EB4101524263EB7E
:1011E00043037047524263EB430300F017F8DDF806
:1011F00004E0DDE9022304B0404261EB41017047A5
:10120000524263EB430300F009F8DDF804E0DDE946
:10121000022304B0524263EB430370472DE9F047C9
:10122000089D0F4604468E46002B48D18A4216463A
:1012300061D9B2FA82F24AB1C2F1200301FA02FE88
:1012400020FA03F3964043EA0E0E94404FEA164C00
:10125000BEFBFCF1B7B20CFB11EE01FB07F0230C57
:1012600043EA0E43984209D9F31801F1FF3E80F09A
:10127000ED80984240F2EA80023933441B1AB3FBF6
:10128000FCF00CFB103300FB07F7A4B244EA034464
:10129000A74209D9341900F1FF3380F0D980A74261
:1012A00040F2D6803444023840EA01400021E41B79
:1012B0001DB10023D440C5E90043BDE8F0878B424F
:1012C00006D90DB1C5E9000100210846BDE8F08747
:1012D000B3FA83F1002947D1BB4202D3824200F224
:1012E0000481841A67EB030201209646002DE4D0A6
:1012F000C5E9004EE1E7002A00F09080B2FA82F2E0
:10130000002A40F0A780881B0121370C1FFA86FEB7
:10131000B0FBF7FC07FB1C00230C43EA00430EFB69
:101320000CF0984207D9F3180CF1FF3802D298421A
:1013300000F2E080C4461B1AB3FBF7F007FB103342
:101340000EFB00FEA4B244EA0344A64507D93419B3
:1013500000F1FF3302D2A64500F2C9801846A4EB83
:101360000E0440EA0C40A3E7C1F120068B4022FAAC
:1013700006FC4CEA030C27FA06FA4FEA1C49BAFBB2
:10138000F9F88F4020FA06F309FB18AA1FFA8CFE21
:101390003B4300FA01F708FB0EF01C0C44EA0A4438
:1013A000A04202FA01F20BD91CEB040408F1FF3A47
:1013B00080F09980A04240F29680A8F1020864442F
:1013C000241A98B2B4FBF9F309FB134403FB0EFE95
:1013D00040EA0444A64508D91CEB040403F1FF309D
:1013E0007FD2A6457DD9023B644443EA0840A4EB82
:1013F0000E04A0FB028E74454346F14661D35ED0D5
:1014000055B1FA1A64EB090404FA06F622FA01F35C
:101410001E43CC40C5E9006400214EE743084FEA73
:10142000510C43EAC1710A0C42EA0C428BB2C40768
:10143000B2FBF6F143EA0243BCFBF6FCB64630468B
:1014400037461F22181A41EA0C4161E7714615E739
:10145000184629E7C2F1200321FA03F0964024FA46
:1014600003F397403B43370CB0FBF7F807FB18003A
:101470001FFA86FE190C41EA004108FB0EF0884273
:1014800004FA02F43AD9711808F1FF3C01D28842FB
:101490001ED8091AB1FBF7F808FB0EF007FB18116C
:1014A0009BB243EA014383422FD2F31808F1FF3184
:1014B000C8D28342C6D2A8F102013344C2E74745ED
:1014C0009ED2B8EB02036EEB0C0E0138F14697E7A3
:1014D000301A0144A8F1020CB1FBF7F808FB0EF03A
:1014E000DCE7034681E7D0466AE70846FEE6344477
:1014F000023834E7ACF1020C33441CE7091AC44645
:10150000B1FBF7F808FB0EF0C8E741469AE700BFC9
:10151000704700BFB0B5AEB004AFF860B9607A6094
:10152000B64BC7F8A4307B68C7F89C304FF07E53A9
:10153000C7F88C30D7F8A43083F00043C7F8903058
:101540004FF00003C7F894304FF07E53C7F898303F
:10155000D7F8A430C7F884304FF00003C7F88830BC
:101560004FF07E53FB674FF00003C7F88030A44B69
:1015700007F16C040FCB84E80F00A24BBB664FF061
:101580007E53BB654FF00003FB65D7F8A43083F0B2
:1015900000433B664FF07E537B664FF07E533B65C6
:1015A0004FF000037B6507F1480300221A605A6080
:1015B00007F1400300221A605A6007F1300300224D
:1015C0001A605A609A60DA6007F1200300221A60FC
:1015D0005A609A60DA6007F1180300221A605A60B4
:1015E0004FF000037B61FB6883F000431846FEF771
:1015F0002BFF04460D46B868FEF726FF02460B4651
:10160000204629460BF05EFB02460B461046194663
:10161000FFF74AFA0346C7F8A03007F148030293E0
:10162000794B019307F18C030093012302220221DD
:10163000022000F023FB07F14003029307F19C0313
:10164000019307F184030093012301220121022069
:1016500000F014FBBB6C3A6C11461846FFF77AFA9F
:1016600003461A46694B1A60FB6C7A6C11461846A1
:10167000FFF770FA03461A46644B5A6007F13003CD
:101680000293634B019307F18C0300930223022220
:101690000221022000F0F2FA07F12003029307F181
:1016A0005803019307F13003009302230222022121
:1016B000022000F0E3FA3B6AFA6E11461846FFF783
:1016C00049FA03461A46534B1A607B6A3A6F114631
:1016D0001846FFF73FFA03461A464E4B5A60BB6A5C
:1016E0007A6F11461846FFF735FA03461A46494BFA
:1016F0009A60FB6ABA6F11461846FFF72BFA034649
:101700001A46444BDA6007F118030293414B0193E8
:1017100007F17C030093022302220221012000F042
:10172000ADFA07F11403029307F15003019307F197
:1017300018030093012302220221012000F09EFAE7
:101740007B69BA6E11461846FFF704FA034619463C
:101750004FF07E50FFF7BAFB03467B6107F1480369
:10176000029307F1500301932A4B009301230222B5
:101770000221022000F082FA274B029307F11403A2
:10178000019307F148030093012301220121022064
:1017900000F074FA07F1140302931C4B019307F154
:1017A0007C030093012302220221012000F066FA4B
:1017B0007B691946D7F8A000FFF7CAF903467B6199
:1017C00007F14803029307F114030193124B0093AE
:1017D000012301220121022000F050FA0B4B1B686B
:1017E000BA6C11461846FFF7B5F903461A46064B80
:1017F0001A60064B5B68FA6C11460FE00AD7A33BF0
:1018000018DC000817B7D1385C0200206402002001
:10181000000000206C0200207C0200201846FFF728
:1018200099F903461A46234B5A6007F13003029395
:1018300007F17C030193204B009302230122012135
:10184000022000F01BFA1D4B1B683A6B114618462C
:10185000FFF77EF903463B63184B5B687A6B1146D2
:101860001846FFF775F903467B63144B9B68BA6B08
:1018700011461846FFF76CF90346BB630F4BDB6854
:10188000FA6B11461846FFF763F90346FB630C4BEE
:1018900002930C4B019307F13003009302230222C1
:1018A0000221022000F0EAF9024B1B681846A83713
:1018B000BD46B0BD5C0200207C020020F4DE0008C2
:1018C000000000206C020020B0B5AEB004AFF8609C
:1018D000B9607A60B64BC7F8A4307B68C7F89C3013
:1018E0004FF07E53C7F88C30D7F8A43083F0004314
:1018F000C7F890304FF00003C7F894304FF07E5394
:10190000C7F89830D7F8A430C7F884304FF00003F8
:10191000C7F888304FF07E53FB674FF00003C7F8DD
:101920008030A44B07F16C040FCB84E80F00A24B6E
:10193000BB664FF07E53BB654FF00003FB65D7F8E5
:10194000A43083F000433B664FF07E537B664FF03C
:101950007E533B654FF000037B6507F1480300228F
:101960001A605A6007F1400300221A605A6007F1BA
:10197000300300221A605A609A60DA6007F120038F
:1019800000221A605A609A60DA6007F11803002298
:101990001A605A604FF000037B61FB6883F00043DC
:1019A0001846FEF751FD04460D46B868FEF74CFD9B
:1019B00002460B46204629460BF084F902460B46A8
:1019C00010461946FFF770F80346C7F8A03007F134
:1019D00048030293794B019307F18C030093012391
:1019E00002220221022000F049F907F1400302938C
:1019F00007F19C03019307F1840300930123012263
:101A00000121022000F03AF9BB6C3A6C11461846ED
:101A1000FFF7A0F803461A46694B1A60FB6C7A6C14
:101A200011461846FFF796F803461A46644B5A606B
:101A300007F130030293634B019307F18C0300938A
:101A4000022302220221022000F018F907F12003EC
:101A5000029307F15803019307F130030093022327
:101A600002220221022000F009F93B6AFA6E1146B7
:101A70001846FFF76FF803461A46534B1A607B6A05
:101A80003A6F11461846FFF765F803461A464E4B63
:101A90005A60BB6A7A6F11461846FFF75BF8034637
:101AA0001A46494B9A60FB6ABA6F11461846FFF70F
:101AB00051F803461A46444BDA6007F118030293C3
:101AC000414B019307F17C03009302230222022180
:101AD000012000F0D3F807F11403029307F150033B
:101AE000019307F118030093012302220221012030
:101AF00000F0C4F87B69BA6E11461846FFF72AF861
:101B0000034619464FF07E50FFF7E0F903467B612C
:101B100007F14803029307F1500301932A4B009306
:101B2000012302220221022000F0A8F8274B029391
:101B300007F11403019307F14803009301230122E5
:101B40000121022000F09AF807F1140302931C4BC4
:101B5000019307F17C03009301230222022101205B
:101B600000F08CF87B691946D7F8A000FEF7F0FF6B
:101B700003467B6107F14803029307F114030193C5
:101B8000124B0093012301220121022000F076F87C
:101B90000B4B1B68BA6C11461846FEF7DBFF034679
:101BA0001A46064B1A60064B5B68FA6C11460FE04A
:101BB0000AD7A33B18DC000817B7D13884020020ED
:101BC0008C0200201000002094020020A4020020BB
:101BD0001846FEF7BFFF03461A46234B5A6007F12B
:101BE0003003029307F17C030193204B00930223FF
:101BF00001220121022000F041F81D4B1B683A6BC5
:101C000011461846FEF7A4FF03463B63184B5B687A
:101C10007A6B11461846FEF79BFF03467B63144B15
:101C20009B68BA6B11461846FEF792FF0346BB63EA
:101C30000F4BDB68FA6B11461846FEF789FF034627
:101C4000FB630C4B02930C4B019307F130030093A1
:101C5000022302220221022000F010F8024B1B682E
:101C60001846A837BD46B0BD84020020A40200205B
:101C700004DF000810000020940200202DE9F04F3E
:101C80008DB000AF78613961FA60BB603A697A6003
:101C9000531E3B62002392469B464FF000024FF0DA
:101CA00000034FEA4B1343EADA634FEA4A12BA6879
:101CB0003A60531EFB610023904699464FF00002A4
:101CC0004FF000034FEA491343EAD8634FEA481242
:101CD000BE68731EBB613246002314461D464FF09A
:101CE00000024FF000036B0143EAD46362013A69DA
:101CF000FB689A425BD10023FB6253E00023BB6286
:101D000049E03246FB6A02FB03F39B003A6E134440
:101D1000BA6A4FF0000143F8221000237B6233E0DF
:101D20007A68FB6A02FB03F39B00BA6D13447A6A7C
:101D300053F822003A687B6A02FB03F39B00FA6DBA
:101D40001344BA6A53F822301946FFF70BF80346DA
:101D500018463246FB6A02FB03F39B003A6E1344BB
:101D6000BA6A53F822103246FB6A02FB03F39B0067
:101D70003A6ED418FEF7EEFE03461A46BB6A44F8E4
:101D800023207B6A01337B627A6A3B699A42C7DB14
:101D9000BB6A0133BB62BA6ABB689A42B1DBFB6AB9
:101DA0000133FB62FA6A7B699A42A7DB02E00448CE
:101DB00008F092FD00BF3437BD46BDE8F08F00BF8C
:101DC00028DC000800000000B0B588B000AF8A4BE6
:101DD0001B68002B40F00481884B4FF480525A61FD
:101DE000864B5B69864B1B78184600F031F9002062
:101DF00000F0DEFEF861012000F0DAFE03465B42EF
:101E0000BB61B969F86900F063FBFA69BB69134407
:101E10001846FEF753FF03464FF080411846FFF780
:101E200055F803461846FEF70FFB6FA3D3E90023CE
:101E3000FEF762FB02460B46104619466CA3D3E937
:101E40000023FEF759FB02460B46104619464FF099
:101E500000026C4BFEF77AFC02460B461046194610
:101E60004FF00002684BFEF771FC02460B4610462D
:101E700019464FF00002654BFEF73EFB02460B464B
:101E800010461946FEF710FE0346614A1360614B87
:101E90001B681846FEF7D8FA04460D465C4B1B68D3
:101EA0001846FEF7D1FA4FF00002584BFEF74EFCF1
:101EB00002460B4620462946FEF768F902460B46C5
:101EC00010461946FEF7F0FD0346524A1360524B86
:101ED0001B6852491846FEF7F9FF03461846FEF7FD
:101EE000B3FA41A3D3E90023FEF706FB02460B46F3
:101EF00010461946FEF7D8FD0346494A1360484B81
:101F00001B68484A126811461846FEF721FE034630
:101F100045491846FEF726FF03461A46434B1A600A
:101F20003F4B1B683F4A13603A4B1B687B60384B42
:101F30001B68BB603A4B1B68FB603C4B1B683B61FA
:101F40003B1D0FCB05F006FE7861394B1B687969A4
:101F50001846FEF707FF03461846FFF7C9F8034681
:101F6000344A1360334B1B68334A1360314B1B6890
:101F7000184600F02AFA0346304A40F6282118464F
:101F800000F08CFA03462E4A13602B4B1B68184650
:101F900000F01BFA0346294A40F62821184600F0B3
:101FA0007DFA0346274A13601B4B1B68264A1268BA
:101FB0001146184600F04AFB0346002B0CD1234B78
:101FC0001B78002B08D11E4B1B681E4A1268114655
:101FD000184600F013FA03E00021002000F00EFA8A
:101FE00000BF2037BD46B0BDF1D4C853FB21094026
:101FF0000000000000C050403001214200040140B8
:102000007400002000408F4000609840000069404C
:10201000B0020020AC02002028050020000034435C
:10202000B4020020BC02002000004843B802002097
:1020300020000020C0020020C4020020D8F5FFFFCD
:102040003005002034050020240000203805002041
:10205000B0B58CB002AF0346FB71FB79012B18D1F0
:1020600004F08EFC704B1B68704A1360704BB3F920
:1020700000301846FEF722FE03466E4A13606E4B90
:10208000B3F904301846FEF719FE03466B4A136095
:10209000C1E007F1100407F1140207F1180107F17C
:1020A0001C0007F10803019307F10C03009323467A
:1020B00000F0CCF8624B1B78022B44D1F868B96869
:1020C000FB6983F000431A46FFF724FA03461846DB
:1020D000FEF7BAF952A3D3E90023FEF737FB024615
:1020E0000B46104619464FF00002564BFEF704FA15
:1020F00002460B4610461946FEF7D6FC03464A4AEE
:1021000013603B69B968BA691846FFF7DDFB0346FF
:102110001846FEF799F942A3D3E90023FEF716FB10
:1021200002460B46104619464FF00002454BFEF79B
:10213000E3F902460B4610461946FEF7B5FC034686
:10214000414A136063E03E4B1B78032B5FD1FB6871
:102150001846FEF779F904460D46BB681846FEF7A7
:1021600073F902460B46204629460AF0ABFD4FF0B4
:102170000002344BFEF7C0F902460B4610461946E2
:1021800027A3D3E90023FEF7E1FA02460B461046E7
:102190001946FEF789FC03467B623B691846FEF749
:1021A00053F904460D46BB681846FEF74DF9024642
:1021B0000B46204629460AF085FD4FF00002214BD0
:1021C000FEF79AF902460B461046194614A3D3E9C6
:1021D0000023FEF7BBFA02460B4610461946FEF7EF
:1021E00063FC03463B62FB691946786A00F076FAA5
:1021F000034683F000430C4A1360BB691946386AF2
:1022000000F0A8FA034683F000430F4A1360064B20
:102210001B68064A136000BF2837BD46B0BD00BF2B
:10222000F1D4C853FB2109400403002028050020F5
:10223000F00200202C050020F8020020C802002037
:1022400074000020008066400003002080B58CB040
:1022500000AFF860B9607A603B6007F114030E22AA
:102260003B21D02000F055FF3B7D1BB21B021AB270
:102270007B7D1BB21343FB85BB7D1BB21B021AB2D5
:10228000FB7D1BB21343BB853B7E1BB21B021AB204
:102290007B7E1BB213437B853B7F1BB21B021AB2B2
:1022A0007B7F1BB213433B85BB7F1BB21B021AB261
:1022B000FB7F1BB21343FB8497F820301BB21B0239
:1022C0001AB297F821301BB21343BB84B7F92E30F2
:1022D0001846FEF7F3FC034631491846FEF7F6FDB3
:1022E00003461A463B681A60B7F92C301846FEF7C9
:1022F000E5FC03462A491846FEF7E8FD03461A4660
:10230000BB6B1A60B7F92A301846FEF7D7FC0346B4
:1023100023491846FEF7DAFD03461A46FB6B1A609E
:10232000B7F928301846FEF7C9FC03461D49184680
:10233000FEF7CCFD03461A46FB681A60B7F9263053
:102340001846FEF7BBFC034616491846FEF7BEFDCD
:1023500003461A46BB681A60B7F924301846FEF7E0
:10236000ADFC03460F491846FEF7B0FD03461A467A
:102370007B681A60B7F928305B421846FEF79EFC6E
:102380000346094A1360B7F92A301846FEF796FC4F
:102390000346064A136000BF3037BD4680BD00BF0C
:1023A000E1FAD04433F36A442C050020C80200202F
:1023B00080B483B000AF78607B68002BB8BF5B420D
:1023C00018460C37BD4680BC704780B483B000AF60
:1023D00078607B68002B03DD7B6803F2145307E011
:1023E0007B68002B03DA7B68A3F2145300E07B6860
:1023F00018460C37BD4680BC7047000080B582B0DF
:1024000000AF786039607B68002B05D1224B002239
:102410009A86214B00221A873B68002B06D11E4B5F
:1024200000229A871C4B0022A3F840207B68002BD7
:102430000ADD7868FFF7BCFF0246174B92B21A8795
:10244000154B00229A8609E0134B00221A87786800
:10245000FFF7AEFF0246104B92B29A863B68002B04
:102460000BDD3868FFF7A4FF02460B4B92B29A8748
:10247000094B0022A3F840200AE0074B00229A876C
:102480003868FFF795FF0246034B92B2A3F840204D
:1024900000BF0837BD4680BD0034014080B487B01E
:1024A00000AFF860B9607A60FB687B617A69BB68ED
:1024B0009A4201DDBB687B617A697B689A4201DAE6
:1024C0007B687B617B6918461C37BD4680BC7047C2
:1024D00080B584B000AF786039607868FDF7A2FFFE
:1024E0004FF00002524BFEF707F802460B4610462B
:1024F00019464FF000024F4BFEF728F902460B46F3
:10250000104619464FF000024B4BFEF71FF90246EA
:102510000B46104619464FF00002484BFEF716F9DD
:1025200002460B4610461946FEF7BEFA0346FB600C
:10253000F868FDF789FF3AA3D3E90023FDF7DCFF34
:1025400002460B461046194637A3D3E90023FDF790
:10255000D3FF02460B46104619464FF00002384B97
:10256000FEF7F4F802460B4610461946FEF79CFAB1
:102570000346344A13603868FDF754FF4FF00002F9
:102580002B4BFDF7B9FF02460B46104619464FF09C
:102590000002284BFEF7DAF802460B4610461946B1
:1025A0004FF00002244BFEF7D1F802460B461046CE
:1025B00019464FF00002214BFEF7C8F802460B46C1
:1025C00010461946FEF770FA0346BB60B868FDF77F
:1025D0003BFF13A3D3E90023FDF78EFF02460B4612
:1025E0001046194610A3D3E90023FDF785FF0246E4
:1025F0000B46104619464FF00002114BFEF7A6F8A5
:1026000002460B4610461946FEF74EFA03460E4A9E
:10261000136000BF1037BD4680BD00BFAFF3008020
:10262000F1D4C853FB2109400000000000C0504015
:10263000000069400000104000003E4000002640BD
:1026400000002440CC020020D002002080B584B0DD
:1026500000AF786039601B497868FEF721FD0346BA
:10266000002B18D118497868FEF738FD0346002B77
:1026700011D1164B1B78012B0DD015493868FEF788
:102680000FFD0346002B16D012493868FEF726FDD1
:102690000346002B0FD00123FB730F4B00229A86B9
:1026A0000D4B00221A870C4B00229A870A4B0022FE
:1026B000A3F8402001E00023FB73FB7B1846103792
:1026C000BD4680BD000020C2000020423805002029
:1026D0009A9919410000A04000340140B0B584B07F
:1026E00000AF78603960184BFB607968F868FEF7D6
:1026F00039FB03461C46F9684FF07E50FEF728FA76
:1027000003461D46114B1B6839681846FEF72AFB25
:1027100003461A460E4B1B6819461046FEF71AFA76
:10272000034619462846FEF71DFB03461946204678
:10273000FEF710FA03461A46054B1A60044B1B6855
:1027400018461037BD46B0BD0AD7A33C280000206C
:10275000D4020020B0B584B000AF78603960184B67
:10276000FB607968F868FEF7FDFA03461C46F968D5
:102770004FF07E50FEF7ECF903461D46114B1B68E7
:1027800039681846FEF7EEFA03461A460E4B1B68E8
:1027900019461046FEF7DEF9034619462846FEF7AD
:1027A000E1FA034619462046FEF7D4F903461A46D5
:1027B000054B1A60044B1B6818461037BD46B0BD68
:1027C0000AD7A33C28000020D802002080B586B09C
:1027D00000AF01214FF4017005F0AAFF4FF4004053
:1027E00005F0D4FE20233B800023FB703B461946B6
:1027F0001A4805F0B5FD1A4805F044FB00237B603C
:1028000000233B7200237B724FF46023FB600023A4
:102810003B6101233B753B1D1946114805F06CFBDC
:1028200001210F4805F0BAFB0D4805F0D2FB00BFAF
:102830000B4805F0DDFB0346002BF9D1084805F0F5
:10284000EEFB00BF064805F0F9FB0346002BF9D16B
:1028500000BF00BF1837BD4680BD00BF0008014063
:102860000024014080B584B000AF0346FB714FF4F3
:102870007A73FB81F979072301220E4805F010FCD9
:1028800001210C4805F0F1FB00BF0221094805F0C9
:10289000DCFC0346002B04D1FB895A1EFA81002B75
:1028A000F3D1044805F0C5FC034618461037BD4671
:1028B00080BD00BF0024014080B582B000AF05207C
:1028C000FFF7D0FF0346FB80FB881846FEF7F2F9BE
:1028D000034605491846FEF745FA03463B603B6848
:1028E00018460837BD4680BD3333533A80B582B0B1
:1028F00000AFFFF7E1FF786005497868FEF732FA2C
:1029000003467B607B6818460837BD4680BD00BF24
:10291000C3F5804080B582B000AF0121042005F0EE
:1029200007FF4FF40063BB801023FB710223BB71D0
:102930003B1D1946044805F013FD044B00221A60A4
:1029400000BF0837BD4680BD00080140AC012142F0
:1029500080B582B000AF0F4B1B680F4AA2FB032368
:102960009B0CFB716FF0040005F070FAFB79DB083B
:10297000DAB20A4B1A70094B1B781A465201D21A66
:1029800092001344DB009AB2054B1A8000BF08374F
:10299000BD4680BD7000002083DE1B43DC020020AA
:1029A000DE02002080B485B000AF0346FB80FB88C8
:1029B000124A12881146124A01FB03F35360104B6E
:1029C00000229A600E4B01221A600D4B1B68FB60BF
:1029D000FB6803F00103002B04D0FB6803F4803391
:1029E000002BF2D0064B00221A60054B00229A60A1
:1029F00000BF1437BD4680BC704700BFDE02002018
:102A000010E000E080B485B000AF7860124B1B7816
:102A10001946124A7B6801FB03F353600F4B0022F7
:102A20009A600E4B01221A600C4B1B68FB60FB681E
:102A300003F00103002B04D0FB6803F48033002B68
:102A4000F2D0064B00221A60044B00229A6000BFAD
:102A50001437BD4680BC7047DC02002010E000E067
:102A600080B588B000AF0121022005F07FFE012172
:102A7000042005F05DFEC023BB800423FB713B1DD9
:102A800019461F4805F06CFC07F11403184606F0C0
:102A9000AFFA0023BB824FF6FF733B8300237B8397
:102AA0000023FB8207F114031946164805F0CEFFF8
:102AB000002300220321134806F032FB07F108032C
:102AC000184606F0AEFA0A233B8207F108031946BE
:102AD0000C4806F039FA01210A4806F079FC012277
:102AE0000121084806F0F9FA0021064806F0F2FB39
:102AF0000121044806F0ADFA00BF2037BD4680BD75
:102B0000000801400004004080B588B000AF0121FA
:102B1000042005F02BFE0121082005F009FEC0234A
:102B2000BB800423FB713B1D19461F4805F018FCB0
:102B300007F11403184606F05BFA0023BB824FF638
:102B4000FF733B8300237B830023FB8207F1140385
:102B50001946164805F07AFF002300220321134886
:102B600006F0DEFA07F10803184606F05AFA0A23BF
:102B70003B8207F1080319460C4806F0E5F90121EC
:102B80000A4806F025FC01220121084806F0A5FAB2
:102B90000021064806F09EFB0121044806F059FA80
:102BA00000BF2037BD4680BD000C0140000800403A
:102BB00080B485B000AF0346FB71FB79002B02D0D7
:102BC000012B09D011E00D4B9B8C9BB21BB2FB601B
:102BD0000A4B00229A840AE0094B9B8C9BB21BB2E1
:102BE000FB60074B00229A8401E00023FB60FB6836
:102BF00018461437BD4680BC704700BF0004004033
:102C00000008004080B400AF064B1B8A054B1B8AAE
:102C10009BB2044A23F001039BB2138200BFBD465E
:102C200080BC70470008004080B400AF064B1B8A90
:102C3000054B1B8A9BB2044A23F001039BB213820B
:102C400000BFBD4680BC70470004004080B582B024
:102C500000AF0121082005F06BFD4FF44063BB80FD
:102C60001023FB710323BB713B1D1946034805F07C
:102C700077FB00BF0837BD4680BD00BF000C014098
:102C800080B500AF164B5B68154A23F47063536040
:102C9000134B5B68124A43F440735360114B01229B
:102CA0001A60114B1B68002B01D1002315E00F4B5C
:102CB00001221A600120FFF7A5FE0A4B00221A60CC
:102CC000094B1B68002B01D0002306E00120FFF711
:102CD00099FE064B00221A600123184680BD00BFF2
:102CE000000C0140A881214228812142AC8121426F
:102CF00080B500AF0F4B5B680E4A23F470635360DE
:102D00000C4B5B680B4A43F4407353600A4B002240
:102D10001A600A4B00221A600120FFF773FE064B6F
:102D200001221A60054B01221A600120FFF76AFE9A
:102D300000BF80BD000C0140AC812142A88121422E
:102D400080B582B000AF0023FB71194B5B68184A55
:102D500023F470635360164B5B68154A43F40063B9
:102D60005360144B01221A600120FFF74BFE124BF7
:102D700001221A600120FFF745FE0CE0FB790133C8
:102D8000FB71FB79322B03D9FFF7B2FF00230AE076
:102D90000120FFF737FE094B1B68002BEED1064BD5
:102DA00000221A60012318460837BD4680BD00BFC7
:102DB000000C0140A8812142AC812142288121429E
:102DC00080B500AF0F4B00221A600F4B5B680E4AB4
:102DD00023F4706353600C4B5B680B4A43F44073FD
:102DE00053600A4B00221A600120FFF70BFE054BCF
:102DF00001221A600120FFF705FE024B00221A6033
:102E000000BF80BDAC812142000C0140A88121425D
:102E100080B500AF0F4B00221A600F4B5B680E4A63
:102E200023F4706353600C4B5B680B4A43F44073AC
:102E300053600A4B01221A600120FFF7E3FD054BA6
:102E400001221A600120FFF7DDFD024B00221A600B
:102E500000BF80BDAC812142000C0140A88121420D
:102E600080B584B000AF0346FB711A4B5B68194A0A
:102E700023F470635360174B5B68164A43F4407346
:102E80005360154B00221A600023FB7319E0FB7995
:102E9000DB09DAB2114B1A60FB795B00FB71012090
:102EA000FFF7B0FD0C4B01221A600120FFF7AAFDCD
:102EB000094B00221A600120FFF7A4FDFB7B0133C0
:102EC000FB73FB7B072BE2D900BF00BF1037BD4669
:102ED00080BD00BF000C0140AC812142A88121428D
:102EE00080B584B000AF3B600346FB710B46BB71FD
:102EF00013467B71FFF7C4FE0346002B01D101236B
:102F000031E0FB795B00DBB21846FFF7A9FFFFF762
:102F100017FF0346002B03D1FFF7EAFE012322E04F
:102F2000BB791846FFF79CFFFFF70AFF0023FB6001
:102F300012E0FB683A6813441B781846FFF790FFCD
:102F4000FFF7FEFE0346002B03D1FFF7D1FE00235F
:102F500009E0FB680133FB607B79FA689A42E8DBA1
:102F6000FFF7C6FE002318461037BD4680BD80B56A
:102F700082B000AF3B600346FB710B46BB7113464A
:102F80007B71FFF77DFE0346002B01D101233FE05B
:102F9000FB795B00DBB21846FFF762FFFFF7D0FE5C
:102FA0000346002B03D1FFF7A3FE012330E0BB79DA
:102FB0001846FFF755FFFFF7C3FEFFF761FEFB79E9
:102FC0005B00DBB20133DBB21846FFF749FFFFF7C6
:102FD000B7FE17E07B79012B07D1002000F01CF829
:102FE00003461A463B681A7006E0012000F014F808
:102FF00003461A463B681A703B6801333B607B7995
:10300000013B7B717B79002BE4D1FFF771FE00233C
:1030100018460837BD4680BD80B584B000AF034672
:10302000FB710023BB731C4B5B681B4A23F470636A
:103030005360194B5B68184A43F4006353600023E4
:10304000FB7318E0154B00221A600220FFF7DAFC30
:10305000124B01221A60BB7B5B00BB73104B1B68D9
:10306000002B02D0BB7B0133BB730220FFF7CAFCED
:10307000FB7B0133FB73FB7B072BE3D9FB79002B35
:1030800002D0FFF79DFE01E0FFF7C2FEBB7B1846B2
:103090001037BD4680BD00BF000C0140AC8121420D
:1030A0002881214280B584B000AF03460A46FB71F7
:1030B0001346BB710023FB73FFF7E2FDFB79184653
:1030C000FFF7CEFEFB7B0133FB73FFF739FEBB79C5
:1030D0001846FFF7C5FEFB7B0133FB73FFF730FE9D
:1030E000FFF7CEFDFB790133DBB21846FFF7B8FEE0
:1030F000FB7B0133FB73FFF723FE0020FFF78CFF00
:103100000346FB73FFF7F4FDFB7B18461037BD4603
:1031100080BD90B585B000AF3B600346FB710B46A8
:10312000BB7113467B710023FB73FFF7A9FDFB798D
:103130001846FFF795FEFFF703FEBB791846FFF729
:103140008FFEFFF7FDFDFFF79BFDFB790133DBB23F
:103150001846FFF785FEFFF7F3FD0023FB7318E029
:10316000FA7B7B79013B9A4208D0FB7B3A68D41802
:103170000120FFF751FF0346237007E0FB7B3A680D
:10318000D4180020FFF748FF03462370FB7B013370
:10319000FB73FA7B7B799A42E2D3FFF7A9FDFB7BB5
:1031A00018461437BD4690BD80B584B000AF3B6073
:1031B0000346FB710B46BB7113467B710023FB7307
:1031C000FFF75EFDFB791846FFF74AFEFFF7B8FDF3
:1031D000BB791846FFF744FEFFF7B2FD0023FB73EF
:1031E0000BE0FB7B3A6813441B781846FFF738FE68
:1031F000FFF7A6FDFB7B0133FB73FA7B7B799A42D9
:10320000EFD3FFF775FD012318461037BD4680BD8B
:1032100080B582B000AF03463A60FB710B46BB71CC
:10322000BA79FB7911461846FFF73CFF03461A4668
:103230003B681A70012318460837BD4680BD80B52B
:1032400082B000AF0346FB710B46BB7113467B7126
:103250007B1DB979F8790122FFF7A6FF03461846CE
:103260000837BD4680BD90B585B000AF044608461E
:1032700011461A462346FB710346BB710B467B7110
:1032800013463B7107F10E02B979FB791846FFF737
:10329000BFFF0346002B37D07B790133FF2202FAB0
:1032A00003F35AB27B79C3F108013B790B44013B2C
:1032B000FF2141FA03F35BB213435BB2FB7397F850
:1032C00020203B79C3F1080302FA03F387F820308A
:1032D00097F820207B79C3F1070342FA03F387F8BC
:1032E0002030BA7BFB7B1340DBB2BB73BA7B97F811
:1032F00020301343DBB2BB73BA7BB979FB79184634
:10330000FFF79DFF034600E0002318461437BD4633
:1033100090BD90B585B000AF0446084611461A46E8
:103320002346FB710346BB710B467B7113463B7111
:1033300007F10F02B979FB791846FFF769FF3B796E
:10334000002B0AD07B79012202FA03F35AB2FB7BED
:103350005BB213435BB2DBB20BE07B79012202FA72
:1033600003F35BB2DB435AB2FB7B5BB213405BB24D
:10337000DBB2FB73FA7BB979FB791846FFF75FFF85
:10338000034618461437BD4690BD000080B584B092
:1033900000AF0121012005F0CBF90121042005F047
:1033A000C7F94FF48053BB814823FB7307F10C032B
:1033B0001946124804F0D4FF0C21002005F0A6F8AD
:1033C0004FF480537B6000233B720C237B720123FC
:1033D000BB723B1D184604F051FF28233B700223AB
:1033E0007B700123BB700123FB703B46184604F041
:1033F000CBFC00BF1037BD4680BD00BF00080140B8
:1034000080B500AF4FF48071054805F065F80346BC
:10341000002B01D1012300E00023184680BD00BF2E
:103420000008014080B582B000AF0346FB71FFF792
:10343000E7FF0346012B09D11420FFF7B3FAFFF78A
:10344000DFFF0346012B01D1012300E000231846D2
:103450000837BD4680BD000080B582B000AF0121B5
:10346000042005F065F94FF48073BB804823FB719D
:103470003B1D1946034804F073FF00BF0837BD46E3
:1034800080BD00BF0008014080B582B000AF0121BF
:10349000082005F04DF90823BB801023FB7102239F
:1034A000BB713B1D1946054804F05AFF044B00222E
:1034B0001A6000BF0837BD4680BD00BF000C014048
:1034C0008C81214280B584B000AF0346FB71294B4B
:1034D00093F82430002B1CD0FB79002B02D0022360
:1034E000FB7301E00023FB73224B5B681878214BD0
:1034F0001B68D97B07F10F030122FFF7F1FC03469C
:10350000002B02D04FF0FF3330E0FA7B194B5A7496
:103510002BE0184B9B7A002B02D14FF0FF3325E0B4
:10352000FB79002B05D0134B5B7C002B01D00023D3
:103530001CE0FB79002B02D00123FB7301E0002388
:10354000FB730C4B5B6818780A4B1B68D97B07F13F
:103550000F030122FFF7C4FC0346002B02D04FF0FB
:10356000FF3303E0FA7B034B5A74002318461037ED
:10357000BD4680BD2C00002080B582B000AF802306
:103580003B70834B5B681878814B1B68997C3B468A
:103590000122FFF7A5FC0346002B02D04FF0FF33BA
:1035A000F1E06420FFF7FEF900233B70784B5B6885
:1035B0001878774B1B68997C3B460122FFF790FCFB
:1035C0000346002B02D04FF0FF33DCE0704B5B680A
:1035D00018786F4B1B68997D3B460622FFF7C7FCA6
:1035E0000346002B02D04FF0FF33CCE07B795BB277
:1035F0009B005BB203F004035AB2FB785BB25B0042
:103600005BB203F002035BB213435AB27B785BB246
:1036100003F001035BB213435BB2FB71FB79002B38
:1036200015D0FB79012B03D1594B0122DA7438E014
:10363000FB79022B03D1564B0022DA7431E0FB797F
:103640001946544807F048F94FF0FF339BE0504BC0
:103650005B6818784E4B1B68D9783B460122FFF710
:1036600086FC0346002B02D04FF0FF338BE03B7803
:1036700003F00F03FB71FB79002B05D1464807F0DF
:1036800093F94FF0FF337EE0FB79042B06D14348DA
:1036900007F08AF93E4B0122DA7402E03C4B00222B
:1036A000DA743B4BFF229A72394BFF221A72384B65
:1036B000FF225A72364BFF22DA72354B4FF6FF72F9
:1036C000DA81334BFF221A74314BFF229A74304B4C
:1036D00001221A732E4B012283F822202C4B002248
:1036E00083F823202A4B00225A75294B00221A7591
:1036F0000C2200212A4807F067FA254B002283F8A4
:103700002420234B002283F82520214B0022DA8439
:103710004FF4FA6000F0F6F90346002B02D04FF0A8
:10372000FF3330E0022000F07BFA0346002B02D08A
:103730004FF0FF3327E02A2000F016FB0346002B52
:1037400002D04FF0FF331EE0322000F073FB03463F
:10375000002B02D04FF0FF3315E0002000F056FCA4
:103760000346002B02D04FF0FF330CE0002000F0A6
:10377000A5FD0346002B02D04FF0FF3303E00020ED
:1037800000F096FC002318460837BD4680BD00BFF8
:103790002C00002040DC000868DC0008B8DC0008D1
:1037A0004200002080B584B000AF0346FB71FB7976
:1037B000282B02D94FF0FF336BE0FB79002B1CD193
:1037C000002000F041FE00233B7307237B73334B43
:1037D0005B681878314B1B68997C07F10C03022257
:1037E000FFF77EFB0346002B02D04FF0FF3350E083
:1037F0002A4B00221A7500234BE0012000F024FE22
:1038000020233B73FB79012B05D100237B7305201B
:1038100000F0AAFA16E0FB79052B05D801237B738B
:10382000052000F0A1FA0DE0FB79142B05D8022346
:103830007B730A2000F098FA04E003237B731420C2
:1038400000F092FA7B7B5BB29B015BB243F0070313
:103850005BB2DBB27B73114B5B6818780F4B1B6854
:10386000997C07F10C030222FFF73AFB0346002B79
:1038700002D04FF0FF330CE0084B08229A72074B3E
:1038800000221A73054B01221A75002000F0BEFBBE
:10389000002318461037BD4680BD00BF2C00002015
:1038A00080B582B000AF7B4B9B7A002B02D14FF0EA
:1038B000FF33EBE00023FB71764B5B681878754BA8
:1038C0001B68D97BFB1D0122FFF70AFB0346002B77
:1038D00002D04FF0FF33D9E06E4B5B6818786D4B28
:1038E0001B685979FB1D0122FFF7FAFA0346002BEA
:1038F00002D04FF0FF33C9E0664B5B681878654B28
:103900001B681979FB1D0122FFF7EAFA0346002B19
:1039100002D04FF0FF33B9E05E4B93F82430002B18
:1039200059D00C23FB715B4B5B681878594B1B68B3
:103930001979FB1D0122FFF7D3FA0346002B02D0B1
:103940004FF0FF33A2E0C023FB71524B9B7A03F090
:103950000103002B04D0FB7943F02003DBB2FB71A1
:103960004C4B5B6818784B4B1B681979FB1D012287
:10397000FFF7B6FA0346002B02D04FF0FF3385E085
:10398000444B5B7C002B02D00223FB7101E000233F
:10399000FB71404B5B6818783E4B1B68D97BFB1D65
:1039A0000122FFF79DFA0346002B02D04FF0FF33B0
:1039B0006CE00023FB71374B5B681878354B1B6854
:1039C0005979FB1D0122FFF78BFA0346002B5CD0CF
:1039D0004FF0FF335AE00423FB712E4B5B681878DD
:1039E0002C4B1B681979FB1D0122FFF779FA03465E
:1039F000002B02D04FF0FF3348E0264B9B7C002B7E
:103A000005D1244B9B7A03F00103002B02D1402304
:103A1000FB7101E06023FB711E4B5B6818781D4B46
:103A20001B681979FB1D0122FFF75AFA0346002B88
:103A300002D04FF0FF3329E0164B5B7C002B02D005
:103A40000123FB7101E00023FB71124B5B681878C6
:103A5000104B1B68D97BFB1D0122FFF741FA03467F
:103A6000002B02D04FF0FF3310E00A4B5B68187850
:103A7000084B1B685979084B0122FFF731FA0346BE
:103A8000002B02D04FF0FF3300E000231846083728
:103A9000BD4680BD2C0000203C00002080B483B0D7
:103AA00000AF7860164B1B7A032B1ED801A252F888
:103AB00023F000BFC53A0008CD3A0008D73A000805
:103AC000E13A00087B68FA221A8012E07B684FF422
:103AD000FA721A800DE07B684FF47A721A8008E05F
:103AE0007B684FF4FA621A8003E07B6800221A8038
:103AF00000BF002318460C37BD4680BC704700BF8E
:103B00002C00002080B584B000AF0346FB80264B1C
:103B10009B7A002B02D14FF0FF3341E0FB88B3F5D5
:103B2000FA6F17D0B3F5FA6F17DCB3F57A7F0ED0C2
:103B3000B3F57A7F11DCFA2B03D0B3F5FA7F03D00B
:103B40000BE00023FB730BE00823FB7308E010235A
:103B5000FB7305E01823FB7302E04FF0FF331FE017
:103B6000114B1A7AFB7BDB08DBB29A4201D10023AE
:103B700016E00D4B5B6818780B4B1B68997907F1C1
:103B80000F030122FFF7ACF90346002B02D04FF0E0
:103B9000FF3305E0FB7BDB08DAB2034B1A7200232C
:103BA00018461037BD4680BD2C00002080B483B07D
:103BB00000AF7860194B5B7A032B1BD801A252F837
:103BC00023F000BFD53B0008DD3B0008E53B0008C3
:103BD000ED3B00087B6802221A700EE07B6804222D
:103BE0001A700AE07B6808221A7006E07B681022CF
:103BF0001A7002E04FF0FF330AE0084BDB7C002B29
:103C000005D07B681B785B00DAB27B681A700023F2
:103C100018460C37BD4680BC704700BF2C00002002
:103C200080B584B000AF0346FB71304B9B7A002B0C
:103C300002D14FF0FF3354E0FB79023B0E2B2DD81D
:103C400001A252F823F000BF853C00089D3C00080B
:103C50008B3C00089D3C00089D3C00089D3C0008F2
:103C6000913C00089D3C00089D3C00089D3C0008DC
:103C70009D3C00089D3C00089D3C00089D3C0008C0
:103C8000973C00080023FB730BE00823FB7308E05C
:103C90001023FB7305E01823FB7302E04FF0FF33A2
:103CA0001FE0124B5A7AFB7BDB08DBB29A4201D150
:103CB000002316E00D4B5B6818780C4B1B68D97914
:103CC00007F10F030122FFF70BF90346002B02D087
:103CD0004FF0FF3305E0FB7BDB08DAB2034B5A728F
:103CE000002318461037BD4680BD00BF2C000020C1
:103CF00080B483B000AF78601A4BDB7A013B052BB0
:103D000026D801A252F823F0213D0008293D0008E1
:103D1000313D0008393D0008413D0008493D00089B
:103D20007B68BC221A8017E07B6862221A8013E04D
:103D30007B682A221A800FE07B6814221A800BE02D
:103D40007B680A221A8007E07B6805221A8003E05C
:103D50007B6800221A8000BF002318460C37BD463E
:103D600080BC70472C00002080B584B000AF0346B3
:103D7000FB80234B9B7A002B02D14FF0FF333BE0BB
:103D8000FB88BB2B02D90123FB7319E0FB88612B55
:103D900002D90223FB7313E0FB88292B02D90323EA
:103DA000FB730DE0FB88132B02D90423FB7307E0A0
:103DB000FB88092B02D90523FB7301E00623FB7363
:103DC0000F4BDA7AFB7B9A4201D1002314E00C4BB3
:103DD0005B6818780A4B1B68997807F10F0301227A
:103DE000FFF77EF80346002B02D04FF0FF3303E0CD
:103DF000FA7B034BDA72002318461037BD4680BDAC
:103E00002C00002080B483B000AF7860084B93F89A
:103E10002430002B02D04FF0FF3304E0044BDA894A
:103E20007B681A80002318460C37BD4680BC70475B
:103E30002C00002080B584B000AF0346FB802F4BE0
:103E40009B7A002B02D14FF0FF3353E02B4B93F8BA
:103E50002430002B02D04FF0FF334BE0274B1B7D6B
:103E6000002B0FD0FB88002B09D0FB88282B06D80D
:103E7000FB88DBB21846FFF795FC00233AE00020F0
:103E8000FFF790FCFB88032B02D80423FB8006E09D
:103E9000FB88B3F57A7F02D94FF47A73FB80FB88F5
:103EA0004FF47A7292FBF3F3DBB2013BDBB2FB73AC
:103EB000124B5B681878114B1B68597807F10F0398
:103EC0000122FFF70DF80346002B02D04FF0FF331D
:103ED00010E0FB7B01334FF47A7292FBF3F39AB25A
:103EE000064BDA81054BDB895B089BB21846FFF76E
:103EF0003BFF002318461037BD4680BD2C00002034
:103F000080B483B000AF7860144B1B7A032B1BD8AE
:103F100001A252F823F000BF293F0008313F0008FA
:103F2000393F0008413F00087B680D4A1A600EE0E7
:103F30007B680C4A1A600AE07B680B4A1A6006E04C
:103F40007B680A4A1A6002E04FF0FF3300E000236A
:103F500018460C37BD4680BC704700BF2C000020BF
:103F60000000034300008342333303423333834171
:103F700080B483B000AF78601B4B5B7A032B1FD8F3
:103F800001A252F823F000BF993F0008A33F0008A8
:103F9000AD3F0008B73F00087B684FF480421A80AD
:103FA00011E07B6841F69C721A800CE07B684FF44C
:103FB00080521A8007E07B684FF400621A8002E0AA
:103FC0004FF0FF330AE0084BDB7C002B05D07B6809
:103FD0001B885B089AB27B681A80002318460C374E
:103FE000BD4680BC704700BF2C00002080B483B069
:103FF00000AF7860044B1A7C7B681A700023184667
:104000000C37BD4680BC70472C00002080B584B0C2
:1040100000AF0346FB710023FB60FB7923F0010333
:10402000FB71224B93F82430002B01D0002338E0A1
:104030001E4B9B7A002B02D14FF0FF3331E01B4B1C
:104040001B7CFB72194B9A7AFB791340DAB2174B3F
:104050001A74164B1B7CFA799A4203D04FF0FF3347
:10406000FB6001E00023FB60FB79002B03D10F4BC9
:104070001B7D002B03D00120FFF724FA02E0002073
:10408000FFF720FAFB79002B0AD0FFF709FC034663
:10409000002B05D0054AFB7A13744FF0FF3300E084
:1040A000FB6818461037BD4680BD00BF2C000020BD
:1040B00080B584B000AF0346FB71FB7903F0700359
:1040C000002B02D00123FB7307E0FB79002B02D009
:1040D0000023FB7301E04023FB73374B5B681878C8
:1040E000354B1B68997C07F10F030122FEF7F8FEA0
:1040F0000346002B05D0304B00229A724FF0FF335D
:1041000056E0FB7B23F04003DAB22B4B1A730023FB
:10411000FB73FB7903F04003002B04D1FB7B43F0DE
:104120000403DBB2FB73FB7903F02003002B04D103
:10413000FB7B43F00203DBB2FB73FB7903F010035C
:10414000002B04D1FB7B43F00103DBB2FB73FB7953
:1041500003F00803002B04D1FB7B43F03803DBB2F0
:10416000FB73154B5B681878134B1B68D97C07F100
:104170000F030122FEF7B4FE0346002B05D00E4BC1
:1041800000229A724FF0FF3312E0FB79002B05D02A
:10419000FB79082B02D0002000F056F9064AFB7983
:1041A0009372054B00221A753220FEF7FBFB0023A9
:1041B00018461037BD4680BD2C00002080B586B063
:1041C00000AF0346B9607A60FB813B4B93F8243023
:1041D000002B02D14FF0FF3369E0374B9B7A002B65
:1041E00002D14FF0FF3362E0334B5B681878324BFB
:1041F0001B68997A07F114030222FEF7B8FE034602
:10420000002B02D04FF0FF3351E03B7D1BB21B026D
:104210001AB27B7D1BB213431BB2FB82FA8AFB8965
:104220009A4205D27B6800221A704FF0FF333EE0BD
:10423000214B5B685B885B089BB2FA8A9A421AD969
:104240001D4B5B6818781C4B1B68597C07F11403E5
:104250000122FEF78CFE0346002B02D04FF0FF3305
:1042600025E03B7D03F01003002B04D0FFF718FB83
:104270006FF001031BE0104B5B6818780E4B1B6856
:10428000D97AFB89DAB2BB68FEF771FE0346002BD0
:1042900002D04FF0FF330AE0FA8AFB89B2FBF3F356
:1042A0009BB2DBB2013BDAB27B681A70002318467E
:1042B0001837BD4680BD00BF2C00002080B584B0FB
:1042C00000AF0346FB715F4B9B7CFA799A4201D1A8
:1042D0000023B2E0FB79002B50D05A4B5B68187872
:1042E000584B1B68197907F10F030122FEF73FFEB7
:1042F0000346002B02D04FF0FF339EE0FB7B23F000
:104300002003DBB2FB734F4B5B6818784D4B1B6887
:10431000197907F10F030122FEF7E2FD0346002B96
:1043200002D04FF0FF3388E00320FEF73BFB02236F
:10433000FB73444B93F82230002B04D0FB7B63F0DB
:104340007F03DBB2FB733F4B93F82330002B04D089
:10435000FB7B43F03003DBB2FB733A4B5B681878AE
:10436000384B1B68197D07F10F030122FEF7B8FDDA
:104370000346002B5DD04FF0FF335EE0314B5B68AE
:104380001878304B1B68197907F10F030122FEF7EB
:10439000EEFD0346002B02D04FF0FF334DE0294BDA
:1043A0009B7A03F00103002B05D0FB7B43F0200335
:1043B000DBB2FB7304E0FB7B23F02003DBB2FB7377
:1043C000204B5B6818781F4B1B68197907F10F03A6
:1043D0000122FEF785FD0346002B02D04FF0FF338C
:1043E0002BE00320FEF7DEFA164B93F82230002B69
:1043F00002D08023FB7301E00023FB73114B93F881
:104400002330002B04D0FB7B43F03003DBB2FB7383
:104410000C4B5B6818780B4B1B68197D07F10F0379
:104420000122FEF75DFD0346002B02D04FF0FF3363
:1044300003E0044AFB799374002318461037BD4605
:1044400080BD00BF2C00002080B584B000AF0346C3
:10445000FB711E4B93F82330FA799A4201D1002365
:1044600030E0FB79002B02D03023FB7301E0002306
:10447000FB73164B9B7C002B04D0FB7B43F00203A9
:10448000DBB2FB73114B93F82230002B04D0FB7B83
:1044900063F07F03DBB2FB730C4B5B6818780B4B4C
:1044A0001B68197D07F10F030122FEF719FD034672
:1044B000002B02D04FF0FF3304E0044AFB7982F86E
:1044C0002330002318461037BD4680BD2C00002045
:1044D00090B587B000AF7860404B5B68187807F103
:1044E000100304220D21FEF742FD0346002B01D0EC
:1044F00007236FE03B7CDB105BB203F01C035AB276
:10450000FB7C1B115BB203F003035BB213435BB292
:10451000DBB23B737B7CDB105BB203F01C035AB253
:10452000FB7C9B105BB203F003035BB213435BB2F3
:10453000DBB27B73BB7CDB105BB203F01C035AB2B3
:10454000FB7C5BB203F003035BB213435BB2DBB2F1
:10455000BB730023FB7539E0FB7D18333B4413F834
:104560000C3C002B07D1FB7D9B007A6813444FF075
:1045700000021A6027E0FB7D9B007A681344184A0A
:104580001A600DE0FB7D9B007A6813441868FB7D80
:104590009B007A68D4181349FCF7E4FB03462360B8
:1045A000FB7D03F118023A4412F80C2C013AD1B207
:1045B00003F118023A4402F80C1C18333B4413F878
:1045C0000C3C002BDED1FB7D0133FB75FB7D022B08
:1045D000C2D9002318461C37BD4690BD2C000020D0
:1045E0007B14AE3E1D5A843F80B58AB000AF786020
:1045F000396000233B6207F10C031846FFF768FFA0
:1046000000237B6265E07B6A9B007A6813441A682A
:104610007B6A9B0039680B441B68D31A002BB8BF18
:104620005B421846FCF74AFB03464FF08F411846A1
:10463000FCF74CFC0346FB617B6A9B0028333B4440
:1046400053F81C3C4FF000011846FCF71FFD0346D1
:10465000002B24D17B6A9B0028333B4453F81C3C3D
:104660001946F869FCF732FC03464FF07E511846B4
:10467000FCF76EFA0346BB61BB6923F00043194A9D
:1046800011461846FCF72AFD0346002B1ED00122D6
:104690007B6A02FA03F33A6A13433B6216E0124B59
:1046A0001946F869FCF7FCFC0346002B07D10F4BB9
:1046B0001946F869FCF712FD0346002B06D00122CB
:1046C0007B6A02FA03F33A6A13433B627B6A013363
:1046D0007B627B6A022B96DD3B6A18462837BD4613
:1046E00080BD00BF295C0F3E9A99993E3333733FDA
:1046F00080B588B000AF786039600023BB61544B4F
:104700005B68187807F1080303220D21FEF72FFCE0
:104710000346002B01D0072395E03B7A03F01F03EB
:10472000DBB23B727B7A03F01F03DBB27B72BB7A96
:1047300003F01F03DBB2BB720023FB617EE0FB6969
:104740009B007A6813441A68FB699B0039680B4424
:104750001B68D31A002BB8BF5B421846FCF7AEFAB1
:1047600003464FF08F411846FCF7B0FB03463B6110
:1047700007F10802FB6913441B78002B44D0832304
:104780001846FCF797FA034619463248FCF79EFB99
:1047900003467B6105E030497869FCF7E3FA03469C
:1047A0007B6107F10802FB6913441B78013BD9B216
:1047B00007F10802FB6913440A461A7007F1080260
:1047C000FB6913441B78002BE5D179693869FCF744
:1047D0007DFB03464FF07E511846FCF7B9F90346BE
:1047E000FB60FB6823F000431C4A11461846FCF7A7
:1047F00075FC0346002B1ED00122FB6902FA03F36D
:10480000BA691343BB6116E0154B19463869FCF7CA
:1048100047FC0346002B07D1124B19463869FCF7B9
:104820005DFC0346002B06D00122FB6902FA03F36C
:10483000BA691343BB61FB690133FB61FB69022B5E
:104840007FF77DAFBB6918462037BD4680BD00BFEE
:104850002C00002000B04C4554E3853F295C0F3EFE
:10486000000020410000D2422DE9B04FB8B000AFA7
:10487000C7F8B400C7F8B010134687F8AF3001236B
:1048800087F8CC30002387F8CD30A54B5B681878CB
:10489000A34B1B68997C07F1CC030222FEF720FB97
:1048A0000346002B02D04FF0FF3351E3C820FEF740
:1048B00079F8002387F8CC30994B5B681878984BCF
:1048C0001B68D97B07F1CC030122FEF709FB0346E5
:1048D000002B02D04FF0FF333AE3914B5B6818781E
:1048E0008F4B1B68597907F1CC030122FEF7F8FAC8
:1048F0000346002B02D04FF0FF3329E3884B5B685F
:104900001878874B1B68997C07F1CC030122FEF7CE
:10491000E7FA0346002B02D04FF0FF3318E3804B39
:104920005B6818787E4B1B68D97D07F1CC030122A8
:10493000FEF7D6FA0346002B02D04FF0FF3307E311
:10494000774B5B681878764B1B68197907F1CC03B5
:104950000122FEF7C5FA0346002B02D04FF0FF33C9
:10496000F6E20C2387F8CC306D4B5B6818786C4B03
:104970001B68197907F1CC030122FEF7B1FA03464F
:10498000002B02D04FF0FF33E2E20F20FEF70AF8CF
:10499000634B9B6A5B7A87F8CC30614B5B68187815
:1049A0005F4B1B68997807F1CC030122FEF798FA58
:1049B0000346002B02D04FF0FF33C9E2584B9B6AED
:1049C0001B7A87F8CC30564B5B681878544B1B68C1
:1049D000597807F1CC030122FEF782FA0346002B37
:1049E00002D04FF0FF33B3E297F8AF30002B08D07E
:1049F0004B4B9B6A9B7A63F01F03DBB287F8CC308A
:104A000004E0474B9B6A9B7A87F8CC30444B5B6849
:104A10001878434B1B68997907F1CC030122FEF704
:104A20005FFA0346002B02D04FF0FF3390E297F875
:104A3000AF30002B08D03A4B9B6ADB7A63F01F0340
:104A4000DBB287F8CC3002E0182387F8CC30344B47
:104A50005B681878324B1B68D97907F1CC030122C7
:104A6000FEF73EFA0346002B02D04FF0FF336FE211
:104A700097F8AF30002B02D0C820FDF793FF4023FA
:104A800087F8CC30264B5B681878254B1B68197962
:104A900007F1CC030122FEF723FA0346002B02D0D4
:104AA0004FF0FF3354E2782387F8CC301C4B5B681F
:104AB00018781B4B1B68597907F1CC030122FEF7CC
:104AC0000FFA0346002B02D04FF0FF3340E23223AF
:104AD0001846FDF767FF002387F8CC30104B5B6862
:104AE00018780F4B1B68597907F1CC030122FEF7A8
:104AF000F7F90346002B02D04FF0FF3328E2084BB2
:104B00005B681878064B1B68997A07F1CC03022280
:104B1000FEF72DFA0346002B04D04FF0FF3317E2C7
:104B20002C00002097F8CC301BB21B021AB297F869
:104B3000CD301BB213431BB2A7F8DC30B7F8DC2032
:104B40001C4BA3FB0223DB089BB287F8DB30D7F8B2
:104B5000B43003F1080100230B60D7F8B4301A1DFC
:104B60000B6813601268D7F8B4301A60D7F8B03009
:104B700003F1080100230B60D7F8B0301A1D0B6851
:104B800013601268D7F8B0301A60002387F8DF305E
:104B9000A5E0094B5B681878074B1B68D97A07F1C9
:104BA000CC030C22FEF7E3F90346002B06D04FF0AE
:104BB000FF33CDE1ABAAAAAA2C00002097F8CC3095
:104BC0001BB21B021AB297F8CD301BB213431BB2B3
:104BD000A7F8C43097F8CE301BB21B021AB297F870
:104BE000CF301BB213431BB2A7F8C63097F8D030B2
:104BF0001BB21B021AB297F8D1301BB213431BB27F
:104C0000A7F8C830D7F8B0301A68B7F9C4301A44DA
:104C1000D7F8B0301A60D7F8B03004331968B7F954
:104C2000C6301846D7F8B0301A1D0B181360D7F8E5
:104C3000B03008331968B7F9C8301846D7F8B03023
:104C400003F108020B18136097F8D2301BB21B0255
:104C50001AB297F8D3301BB213431BB2A7F8BC307B
:104C600097F8D4301BB21B021AB297F8D5301BB29A
:104C700013431BB2A7F8BE3097F8D6301BB21B0205
:104C80001AB297F8D7301BB213431BB2A7F8C03043
:104C9000D7F8B4301A68B7F9BC301A44D7F8B43032
:104CA0001A60D7F8B43004331968B7F9BE30184623
:104CB000D7F8B4301A1D0B181360D7F8B430083386
:104CC0001968B7F9C0301846D7F8B43003F10802B4
:104CD0000B18136097F8DF30013387F8DF3097F84F
:104CE000DF2097F8DB309A42FFF453AFD7F8B430A7
:104CF0001B68DA171C4615462314C7F8A430230492
:104D0000C7F8A03083220023C7F89820C7F89C304A
:104D1000D7E92623D7E92801FCF730FA02460B46EB
:104D20001046194697F8DB300022C7F89030C7F8D4
:104D30009420D7E92423FCF721FA02460B46D7F842
:104D4000B4301A60D7F8B43004331B68DA179846C9
:104D500091464FEA2843C7F88C304FEA0843C7F81A
:104D6000883083220023C7F88020C7F88430D7E931
:104D70002023D7E92201FCF701FA02460B46104630
:104D8000194697F8DB300022BB67FA67D7E91E2384
:104D9000FCF7F4F902460B4610461946D7F8B43032
:104DA0001A1D03461360D7F8B43008331B68DA17AE
:104DB0009A4693464FEA2A437B674FEA0A433B678A
:104DC00083220023BA66FB66D7E91A23D7E91C01C0
:104DD000FCF7D4F902460B461046194697F8DB302B
:104DE00000223B667A66D7E91823FCF7C7F902462A
:104DF0000B4610461946D7F8B43003F108020346B3
:104E00001360D7F8B0301B68DA17BB65FA65D7E9CD
:104E100016120B461B147B650B461B043B654FF4B7
:104E200000620023BA64FB64D7E91223D7E91401B6
:104E3000FCF7A4F902460B461046194697F8DB30FA
:104E400000223B647A64D7E91023FCF797F9024605
:104E50000B46D7F8B0301A60D7F8B03004331B686F
:104E6000DA17BB63FA63D7E90E120B461B147B6398
:104E70000B461B043B634FF400620023BA62FB62E3
:104E8000D7E90A23D7E90C01FCF778F902460B466B
:104E90001046194697F8DB3000223B627A62D7E968
:104EA0000823FCF76BF902460B4610461946D7F863
:104EB000B030043302461A60D7F8B03008331B68AC
:104EC000DA17BB61FA61D7E906120B461B147B6146
:104ED0000B461B043B614FF400620023BA60FB6089
:104EE000D7E90223D7E90401FCF748F902460B464B
:104EF0001046194697F8DB3000223B607A60D7E90C
:104F00000023FCF73BF902460B4610461946D7F83A
:104F1000B030083302461A60D7F8B03008331B6847
:104F2000002B0ADDD7F8B03008331A68D7F8B03054
:104F30000833A2F580321A6009E0D7F8B0300833A0
:104F40001A68D7F8B030083302F580321A600023AF
:104F50001846E037BD46BDE8B08F00BF80B58EB0C3
:104F600000AF78603960022387F82E30644B93F8E5
:104F70002430002B06D0002000F0E6F9012387F84A
:104F80002F3002E0002387F82F3007F10C0318467A
:104F9000FEF784FD07F10F031846FEF707FE07F141
:104FA00008031846FEF7A4FE07F10A031846FEF7A9
:104FB00029FF534B9B7A87F82D3007F10E031846D3
:104FC000FFF714F800237B630AE000223968786851
:104FD000FFF74AFC0346002B08D07B6B01337B6351
:104FE00097F82E307A6B9A42EFDB00E000BF97F81B
:104FF0002E307A6B9A4202D100233B6345E00023B6
:105000007B630DE007F1100107F11C030122184634
:10501000FFF72AFC0346002B08D07B6B01337B6330
:1050200097F82E307A6B9A42ECDB00E000BF97F8DD
:105030002E307A6B9A4202D100233B6325E007F1C0
:10504000100319463868FFF7CFFA034687F82C306B
:1050500007F11C0319467868FFF74AFB034687F8F7
:105060002B3000233B6397F82B30002B03D13B6B95
:1050700043F001033B6397F82C30002B04D13B6BCA
:1050800043F002033B6300E000BF1D4BFF221A7296
:105090001B4BFF225A721A4BFF22DA72184B4FF643
:1050A000FF72DA81164BFF229A72154BFF221A7497
:1050B000134B01221A73BB891846FEF723FDFB7BB5
:1050C0001846FEF7ADFD3B891846FEF74DFE7B897D
:1050D0001846FEF7AFFE97F82D301846FEF7E8FFAA
:1050E000BB7B1846FEF792FF97F82F30002B02D0BB
:1050F000012000F029F93B6B18463837BD4680BDCA
:105100002C00002080B584B000AF03463A60FB80DD
:105110000B46BB803B68002B02D14FF0FF333DE0D4
:10512000204B9B7A002B02D14FF0FF3336E0FB88F7
:105130001B0A9BB2DBB23B73FB88DBB27B737B7BCE
:105140001A46BB881344174A52685289934202DDBB
:105150004FF0FF3322E0134B5B681878114B1B684C
:10516000197E07F10C030222FDF7BAFE0346002B5D
:1051700002D04FF0FF3311E00A4B5B681878094BFF
:105180001B68597DBB88DAB23B68FDF7A9FE034670
:10519000002B02D04FF0FF3300E0002318461037F9
:1051A000BD4680BD2C00002080B584B000AF034612
:1051B0003A60FB800B46BB803B68002B02D14FF06E
:1051C000FF333DE0204B9B7A002B02D14FF0FF33A1
:1051D00036E0FB881B0A9BB2DBB23B73FB88DBB279
:1051E0007B737B7B1A46BB881344174A52685289EB
:1051F000934202DD4FF0FF3322E0134B5B681878D7
:10520000114B1B68197E07F10C030222FDF768FEA3
:105210000346002B02D04FF0FF3311E00A4B5B68CE
:105220001878094B1B68597DBB88DAB23B68FDF7DB
:105230009EFE0346002B02D04FF0FF3300E0002318
:1052400018461037BD4680BD2C00002080B58AB0BE
:1052500000AFB96011461A460346FB810B46BB817D
:105260001346FB80374B93F82530002B02D04FF0CC
:10527000FF3362E0BB68002B02D14FF0FF335CE0EC
:105280000023FB8434E0FA89FB8CD31A102BA8BFCF
:105290001023BB84FB8CBA681A44B98CFB8C18466B
:1052A000FFF730FF0346002B02D04FF0FF3344E0FE
:1052B00007F11402B98CFB8C1846FFF775FF034603
:1052C000002B02D04FF0FF3337E0FB8CBA68134459
:1052D000BA8C07F11401184605F066FC0346002B52
:1052E00002D06FF0010328E0FA8CBB8C1344FB84DE
:1052F000FA8CFB899A42C6D3BB891B0A9BB2DBB2EC
:105300003B74BB89DBB27B740E4B5B6818780D4B2A
:105310001B68997E07F110030222FDF7E1FD0346A9
:10532000002B02D04FF0FF3307E0064B012283F839
:105330002520044AFB88D384002318462837BD461D
:1053400080BD00BF2C00002080B584B000AF0346B4
:10535000FB71264B93F82430FA799A4201D100234D
:1053600040E0FB79002B27D0204B93F82530002B11
:1053700002D14FF0FF3335E00020FEF7A3F8002004
:10538000FEF79CFF194BDB8C1846FEF753FD0023FC
:10539000FB73164B5B68187807F10F03012223217A
:1053A000FDF79EFD114B012283F824200120FEF71A
:1053B00089F8FEF775FA14E00020FEF783F80B4B2E
:1053C0001B7CFB73094B5B68187807F10F03012204
:1053D0002321FDF785FD054B002283F82420FEF7ED
:1053E0005FFA002318461037BD4680BD2C00002010
:1053F00080B483B000AF786000BF0C37BD4680BC7E
:105400007047000080B500AF4FF48062C8230449A4
:1054100040F6F630FFF71AFF0346184680BD00BF7E
:1054200064DF000880B588B000AF0346FB806E4A99
:1054300007F114031268114619800233120C1A7016
:105440006A4A07F110031268114619800233120CE0
:105450001A70674A07F10C0312681146198002336B
:10546000120C1A70634A07F108031268114619807A
:105470000233120C1A70FB8803F0030320333B4401
:1054800013F80C3C3B77FB88DB089BB203F003036B
:1054900020333B4413F80C3C7B77FB889B099BB281
:1054A00003F0030320333B4413F80C3CBB77FB8829
:1054B00003F0030320333B4413F8103C3B76FB8896
:1054C000DB089BB203F0030320333B4413F8103C8A
:1054D0007B76FB889B099BB203F0030320333B449C
:1054E00013F8103CBB7607F11C031A46032140F267
:1054F0002640FFF707FE0346002B02D04FF0FF3394
:105500006EE007F118031A46032140F22A40FFF724
:10551000F9FD0346002B02D04FF0FF3360E007F1A6
:105520001C0307F10C021268114619800233120C99
:105530001A7007F1180307F1080212681146198062
:105540000233120C1A70FB8803F00403002B09D0FD
:105550003B7F43F00103DBB23B773B7E43F001032B
:10556000DBB23B76FB8803F02003002B09D07B7F66
:1055700043F00103DBB27B777B7E43F00103DBB2B8
:105580007B76FB8803F48073002B09D0BB7F43F04C
:105590000103DBB2BB77BB7E43F00103DBB2BB761A
:1055A00007F11C031A4603214FF48860FFF7AAFD98
:1055B0000346002B02D04FF0FF3311E007F1180330
:1055C0001A46032140F23140FFF79CFD0346002BB1
:1055D00002D04FF0FF3303E0074AFB88138100231A
:1055E00018462037BD4680BDD8DC0008DCDC00084A
:1055F000E0DC0008E4DC0008E00200202DE9B04F08
:105600008CB000AFF861804B1B8903F003039B0053
:10561000FA6913441B687B627B4B1B8903F004030C
:10562000002B02D07B6A5B427B62774B1B89DB08D5
:105630009BB203F003039B00FA6913441B68BB622F
:10564000714B1B8903F02003002B02D0BB6A5B4225
:10565000BB626D4B1B899B099BB203F003039B004C
:10566000FA6913441B68FB62674B1B8903F4807360
:10567000002B02D0FB6A5B42FB627B6ADA173B615C
:105680007A61624BD7E904010A4603FB02F2002368
:10569000C7E90401396901FB03F313445B4A396923
:1056A000A1FB02AB5B449B464FF000024FF00003AE
:1056B0004FEA9A7242EA8B024FEAAB7313467B625F
:1056C000BB6ADA17BB60FA60504BD7E902AB5A46A7
:1056D00003FB02F20023514601FB03F313444B4A40
:1056E0005146A1FB02894B4499464FF000024FF00E
:1056F00000034FEA987242EA89024FEAA9731346FF
:10570000BB62FB6ADA173B607A60404BD7E90089DD
:105710004A4603FB02F20023414601FB03F3134414
:105720003A4A4146A1FB02452B441D464FF0000278
:105730004FF00003A20F42EA8502AB171346FB624B
:105740007B6A1B16DBB287F820307B6A1B14DBB246
:1057500087F821307B6A1B12DBB287F822307B6A24
:10576000DBB287F8233007F120031A4604214FF4F7
:105770007470FFF7C7FC0346002B02D04FF0FF33D5
:105780003CE0BB6A1B16DBB287F82030BB6A1B14F7
:10579000DBB287F82130BB6A1B12DBB287F82230FC
:1057A000BB6ADBB287F8233007F120031A460421D5
:1057B0004FF47570FFF7A6FC0346002B02D04FF0A4
:1057C000FF331BE0FB6A1B16DBB287F82030FB6A55
:1057D0001B14DBB287F82130FB6A1B12DBB287F89F
:1057E0002230FB6ADBB287F8233007F120031A4628
:1057F00004214FF47670FFF785FC034618463037D6
:10580000BD46BDE8B08F00BFE002002009E3CA0238
:105810002DE9B04F94B000AF786207F12E0318461F
:10582000FEF7A6FBFB8D9BB200223B617A614FF035
:1058300000024FF000037969CB03D7E904018446E5
:1058400043EA5C430146CA03C7E91223714B1B8933
:1058500003F003039B007A6A13441B68FB636D4BE0
:105860001B8903F00403002B02D0FB6B5B42FB633C
:10587000684B1B89DB089BB203F003039B007A6A29
:1058800013441B683B64634B1B8903F02003002B0C
:1058900002D03B6C5B423B645E4B1B899B099BB215
:1058A00003F003039B007A6A13441B687B64594B23
:1058B0001B8903F48073002B02D07B6C5B427B64FA
:1058C000FB6BDA17BB61FA61BB6CD7E906010A46CC
:1058D00002FB03F2FB6CC7E90601B96901FB03F3A4
:1058E0001344BA6CB969A2FB01AB5B449B464FF011
:1058F00000024FF000034FEA9A7242EA8B024FEA2D
:10590000AB731346FB633B6CDA17BB60FA60BB6C8E
:10591000D7E902AB5A4602FB03F2FB6C514601FB8E
:1059200003F31344BA6C5146A2FB01894B449946D8
:105930004FF000024FF000034FEA987242EA8902EA
:105940004FEAA97313463B647B6CDA173B607A60BD
:10595000BB6CD7E900894A4602FB03F2FB6C414667
:1059600001FB03F31344BA6C4146A2FB01452B44EF
:105970001D464FF000024FF00003A20F42EA8502DD
:10598000AB1713467B64FB6B1B16DBB287F830301A
:10599000FB6B1B14DBB287F83130FB6B1B12DBB2E5
:1059A00087F83230FB6BDBB287F833303B6C1B1669
:1059B000DBB287F834303B6C1B14DBB287F8353030
:1059C0003B6C1B12DBB287F836303B6CDBB287F8DE
:1059D00037307B6C1B16DBB287F838307B6C1B14BE
:1059E000DBB287F839307B6C1B12DBB287F83A30B8
:1059F0007B6CDBB287F83B3007F130031A460C2191
:105A00004FF42570FFF77EFB034618465037BD461E
:105A1000BDE8B08FE002002080B588B000AF03463B
:105A2000FB801F4A07F1100307CA83E80700FB88C1
:105A3000C82B02D94FF0FF332EE0FB88C82292FB1F
:105A4000F3F39BB2013BFB83FB8B1B0A9BB2DBB2E4
:105A50003B72FB8BDBB27B7207F108031A46022113
:105A600040F21620FFF74EFB0346002B02D04FF00A
:105A7000FF3311E007F110031A460C2140F6C12054
:105A8000FFF740FB0346002B02D04FF0FF3303E04B
:105A9000044AFB889381002318462037BD4680BD09
:105AA000E8DC0008E002002080B586B000AF0346C5
:105AB0000A46FB711346BB80FB7903F00703002BFA
:105AC00003D0BB88B3F5C86F02D94FF0FF3307E1AD
:105AD000BB881846FBF7EEF8034683491846FBF7E8
